{
  "transactions": [
    {
      "hash": "0xbc3f49acf20e966b2f2bdb142bbf9c0e19b0c5fa590871c1dd61242be9a15c08",
      "transactionType": "CREATE",
      "contractName": "BetMeme",
      "contractAddress": "0xf93e46212f5ec36d59078d62dbd4112812eed391",
      "function": null,
      "arguments": null,
      "transaction": {
        "from": "0x2fccba2f198066c5ea3e414dd50f78e25c3af552",
        "gas": "0x2234fb",
        "value": "0x0",
        "input": "0x6080604052600180546001600160a01b031990811661dead17909155600280548216731b6877c6dac4b6de4c5817925dc40e2bfdafc01b90811790915560038054831673f805ce4f96e0edd6f0b6cd4be22b34b92373d69617905560048054909216179055348015606e575f5ffd5b50611c908061007c5f395ff3fe608060405234801561000f575f5ffd5b50600436106100fb575f3560e01c806370d5ae05116100935780639f98985d116100635780639f98985d146102d8578063a2f77bcc146102eb578063ba7729651461030b578063bc14ebe714610313575f5ffd5b806370d5ae05146102875780637eaa565d1461029a5780638068aa68146102a25780638decaec0146102c5575f5ffd5b806342fb065d116100ce57806342fb065d146102145780635424533114610234578063577fd7f8146102495780636277779514610274575f5ffd5b8063117a5b90146100ff5780632773dbe0146101d45780632e0be39a146101e95780633676ef5a146101ff575b5f5ffd5b61017161010d3660046116f2565b600560208190525f9182526040909120805460018201546002830154600384015460048501549585015460068601546007870154600888015460099098015496989597949693959492939192909160ff81169061010090046001600160a01b03168b565b604080519b8c5260208c019a909a52988a01979097526060890195909552608088019390935260a087019190915260c086015260e085015261010084015215156101208301526001600160a01b0316610140820152610160015b60405180910390f35b6101dc610326565b6040516101cb9190611773565b6101f15f5481565b6040519081526020016101cb565b6102076104b2565b6040516101cb91906118c0565b6102276102223660046116f2565b61065c565b6040516101cb9190611917565b61024761024236600461194b565b610768565b005b60045461025c906001600160a01b031681565b6040516001600160a01b0390911681526020016101cb565b60025461025c906001600160a01b031681565b60015461025c906001600160a01b031681565b6102076109e0565b6102b56102b036600461197d565b610b81565b6040516101cb94939291906119a5565b6102476102d33660046119e5565b610c40565b6102476102e6366004611a1a565b611067565b6102fe6102f93660046116f2565b611147565b6040516101cb9190611a3a565b610207611245565b60035461025c906001600160a01b031681565b60605f5f5467ffffffffffffffff81111561034357610343611a4c565b60405190808252806020026020018201604052801561039e57816020015b61038b60405180608001604052805f81526020015f151581526020015f8152602001606081525090565b8152602001906001900390816103615790505b5090505f5b5f548110156104ac57335f908152600660209081526040808320848452825291829020825160808101845281548152600182015460ff1615159281019290925260028101549282019290925260038201805491929160608401919061040790611a60565b80601f016020809104026020016040519081016040528092919081815260200182805461043390611a60565b801561047e5780601f106104555761010080835404028352916020019161047e565b820191905f5260205f20905b81548152906001019060200180831161046157829003601f168201915b50505050508152505082828151811061049957610499611a92565b60209081029190910101526001016103a3565b50919050565b60605f5f5467ffffffffffffffff8111156104cf576104cf611a4c565b60405190808252806020026020018201604052801561050857816020015b6104f561161a565b8152602001906001900390816104ed5790505b5090505f805b5f54811015610654575f8181526005602052604090206009015460ff161561064c575f818152600560208181526040928390208351610180810185528154815260018201548184015260028201548186015260038201546060820152600482015460808201529281015460a0840152600681015460c0840152600781015460e0840152600881015461010080850191909152600982015460ff81161515610120860152046001600160a01b0316610140840152600a810180548551818502810185019096528086529394919361016086019383018282801561061757602002820191905f5260205f20905b81546001600160a01b031681526001909101906020018083116105f9575b50505050508152505083838151811061063257610632611a92565b6020026020010181905250818061064890611aba565b9250505b60010161050e565b509092915050565b61068660405180608001604052805f81526020015f151581526020015f8152602001606081525090565b335f908152600660209081526040808320858452825291829020825160808101845281548152600182015460ff161515928101929092526002810154928201929092526003820180549192916060840191906106e190611a60565b80601f016020809104026020016040519081016040528092919081815260200182805461070d90611a60565b80156107585780601f1061072f57610100808354040283529160200191610758565b820191905f5260205f20905b81548152906001019060200180831161073b57829003601f168201915b5050505050815250509050919050565b5f83116107bc5760405162461bcd60e51b815260206004820152601f60248201527f4475726174696f6e206d7573742062652067726561746572207468616e20300060448201526064015b60405180910390fd5b5f821161081d5760405162461bcd60e51b815260206004820152602960248201527f4d696e696d756d2062657420616d6f756e74206d75737420626520677265617460448201526806572207468616e20360bc1b60648201526084016107b3565b5f8190506040518061018001604052805f5481526020014281526020018581526020015f81526020015f81526020018481526020015f81526020015f81526020015f81526020015f15158152602001826001600160a01b031681526020015f67ffffffffffffffff81111561089457610894611a4c565b6040519080825280602002602001820160405280156108bd578160200160208202803683370190505b5090525f805481526005602081815260409283902084518155848201516001820155928401516002840155606084015160038401556080840151600484015560a08401519183019190915560c0830151600683015560e083015160078301556101008084015160088401556101208401516009840180546101408701516001600160a81b0319909116921515610100600160a81b031916929092176001600160a01b03909216909202179055610160830151805161098192600a850192019061167b565b50505f54604080519182526001600160a01b03851660208301527fc3e0f84839dc888c892a013d10c8f9d6dc05a21a879d0ce468ca558013e9121c92500160405180910390a15f805490806109d583611aba565b919050555050505050565b60605f5f5467ffffffffffffffff8111156109fd576109fd611a4c565b604051908082528060200260200182016040528015610a3657816020015b610a2361161a565b815260200190600190039081610a1b5790505b5090505f805b5f54811015610654575f8181526005602052604090206009015460ff16610b79575f818152600560208181526040928390208351610180810185528154815260018201548184015260028201548186015260038201546060820152600482015460808201529281015460a0840152600681015460c0840152600781015460e0840152600881015461010080850191909152600982015460ff81161515610120860152046001600160a01b0316610140840152600a8101805485518185028101850190965280865293949193610160860193830182828015610b4457602002820191905f5260205f20905b81546001600160a01b03168152600190910190602001808311610b26575b505050505081525050838381518110610b5f57610b5f611a92565b60200260200101819052508180610b7590611aba565b9250505b600101610a3c565b600660209081525f92835260408084209091529082529020805460018201546002830154600384018054939460ff90931693919291610bbf90611a60565b80601f0160208091040260200160405190810160405280929190818152602001828054610beb90611a60565b8015610c365780601f10610c0d57610100808354040283529160200191610c36565b820191905f5260205f20905b815481529060010190602001808311610c1957829003601f168201915b5050505050905084565b5f8381526005602052604081206001810154909103610c975760405162461bcd60e51b815260206004820152601360248201527211d85b5948191bd95cc81b9bdd08195e1a5cdd606a1b60448201526064016107b3565b8060050154821015610ce05760405162461bcd60e51b815260206004820152601260248201527142657420616d6f756e7420746f6f206c6f7760701b60448201526064016107b3565b6003546040516323b872dd60e01b8152336004820152306024820152604481018490526001600160a01b03909116906323b872dd906064016020604051808303815f875af1158015610d34573d5f5f3e3d5ffd5b505050506040513d601f19601f82011682018060405250810190610d589190611ad2565b610d9c5760405162461bcd60e51b8152602060048201526015602482015274151bdad95b881d1c985b9cd9995c8819985a5b1959605a1b60448201526064016107b3565b60035460025460405163095ea7b360e01b81526001600160a01b0391821660048201526024810185905291169063095ea7b3906044016020604051808303815f875af1158015610dee573d5f5f3e3d5ffd5b505050506040513d601f19601f82011682018060405250810190610e129190611ad2565b5060048054604051636e553f6560e01b81529182018490523060248301526001600160a01b031690636e553f65906044016020604051808303815f875af1158015610e5f573d5f5f3e3d5ffd5b505050506040513d601f19601f82011682018060405250810190610e839190611aed565b50600981015460ff1615610ece5760405162461bcd60e51b815260206004820152601260248201527111d85b5948185b1c9958591e48195b99195960721b60448201526064016107b3565b335f9081526006602090815260408083208784529091529020600281015415610f395760405162461bcd60e51b815260206004820152601760248201527f5573657220616c726561647920706c616365642062657400000000000000000060448201526064016107b3565b84815560018101805460ff19168515151790556002810180548491905f90610f62908490611b04565b909155505060408051808201909152600781526650454e44494e4760c81b60208201526003820190610f949082611b69565b508315610fb95782826006015f828254610fae9190611b04565b90915550610fd29050565b82826007015f828254610fcc9190611b04565b90915550505b82826008015f828254610fe59190611b04565b9091555050600a820180546001810182555f91825260209091200180546001600160a01b031916339081179091556040517fb2dea862933fda054de6f12d6e0b7affaff4ba9f6aa471c7532461410d6ba46d90611058908890889088909283529015156020830152604082015260600190565b60405180910390a25050505050565b5f82815260056020526040812060018101549091036110be5760405162461bcd60e51b815260206004820152601360248201527211d85b5948191bd95cc81b9bdd08195e1a5cdd606a1b60448201526064016107b3565b600481018290556008810154600382015483106110eb576110e68483600601548360016113be565b6110fb565b6110fb848360070154835f6113be565b60408051858152602081018590527f4c4660db760944215f41e957066d756ad5fd0eed1b4640632322eb06f77b034d910160405180910390a150600901805460ff191660011790555050565b61114f61161a565b5f828152600560208181526040928390208351610180810185528154815260018201548184015260028201548186015260038201546060820152600482015460808201529281015460a0840152600681015460c0840152600781015460e0840152600881015461010080850191909152600982015460ff81161515610120860152046001600160a01b0316610140840152600a810180548551818502810185019096528086529394919361016086019383018282801561075857602002820191905f5260205f20905b81546001600160a01b03168152600190910190602001808311611218575050505050815250509050919050565b60605f5f5467ffffffffffffffff81111561126257611262611a4c565b60405190808252806020026020018201604052801561129b57816020015b61128861161a565b8152602001906001900390816112805790505b5090505f5b5f548110156104ac575f818152600560208181526040928390208351610180810185528154815260018201548184015260028201548186015260038201546060820152600482015460808201529281015460a0840152600681015460c0840152600781015460e0840152600881015461010080850191909152600982015460ff81161515610120860152046001600160a01b0316610140840152600a810180548551818502810185019096528086529394919361016086019383018282801561139057602002820191905f5260205f20905b81546001600160a01b03168152600190910190602001808311611372575b5050505050815250508282815181106113ab576113ab611a92565b60209081029190910101526001016112a0565b5f848152600560205260408120905b600a820154811015611612575f82600a0182815481106113ef576113ef611a92565b5f9182526020808320909101546001600160a01b03168083526006825260408084208b85529092529082206001810154919350919086151560ff9091161515036114fc57878783600201546114449190611c24565b61144e9190611c3b565b600986015460405163a9059cbb60e01b81526001600160a01b038681166004830152602482018490529293506101009091049091169063a9059cbb906044016020604051808303815f875af11580156114a9573d5f5f3e3d5ffd5b505050506040513d601f19601f820116820180604052508101906114cd9190611ad2565b50604080518082019091526003808252622ba7a760e91b60208301528301906114f69082611b69565b506115c3565b8787836002015461150d9190611c24565b6115179190611c3b565b600986015460405163a9059cbb60e01b81526001600160a01b038681166004830152602482018490529293506101009091049091169063a9059cbb906044016020604051808303815f875af1158015611572573d5f5f3e3d5ffd5b505050506040513d601f19601f820116820180604052508101906115969190611ad2565b506040805180820190915260048152631313d4d560e21b602082015260038301906115c19082611b69565b505b604080518a8152602081018390526001600160a01b038516917f987d620f307ff6b94d58743cb7a7509f24071586a77759b77c2d4e29f75a2f9a910160405180910390a25050506001016113cd565b505050505050565b6040518061018001604052805f81526020015f81526020015f81526020015f81526020015f81526020015f81526020015f81526020015f81526020015f81526020015f151581526020015f6001600160a01b03168152602001606081525090565b828054828255905f5260205f209081019282156116ce579160200282015b828111156116ce57825182546001600160a01b0319166001600160a01b03909116178255602090920191600190910190611699565b506116da9291506116de565b5090565b5b808211156116da575f81556001016116df565b5f60208284031215611702575f5ffd5b5035919050565b5f81518084528060208401602086015e5f602082860101526020601f19601f83011685010191505092915050565b80518252602081015115156020830152604081015160408301525f60608201516080606085015261176b6080850182611709565b949350505050565b5f602082016020835280845180835260408501915060408160051b8601019250602086015f5b828110156117ca57603f198786030184526117b5858351611737565b94506020938401939190910190600101611799565b50929695505050505050565b5f8151808452602084019350602083015f5b8281101561180f5781516001600160a01b03168652602095860195909101906001016117e8565b5093949350505050565b805182526020810151602083015260408101516040830152606081015160608301526080810151608083015260a081015160a083015260c081015160c083015260e081015160e08301526101008101516101008301525f61012082015161188561012085018215159052565b506101408201516118a26101408501826001600160a01b03169052565b5061016082015161018061016085015261176b6101808501826117d6565b5f602082016020835280845180835260408501915060408160051b8601019250602086015f5b828110156117ca57603f19878603018452611902858351611819565b945060209384019391909101906001016118e6565b602081525f6119296020830184611737565b9392505050565b80356001600160a01b0381168114611946575f5ffd5b919050565b5f5f5f6060848603121561195d575f5ffd5b833592506020840135915061197460408501611930565b90509250925092565b5f5f6040838503121561198e575f5ffd5b61199783611930565b946020939093013593505050565b8481528315156020820152826040820152608060608201525f6119cb6080830184611709565b9695505050505050565b80151581146119e2575f5ffd5b50565b5f5f5f606084860312156119f7575f5ffd5b833592506020840135611a09816119d5565b929592945050506040919091013590565b5f5f60408385031215611a2b575f5ffd5b50508035926020909101359150565b602081525f6119296020830184611819565b634e487b7160e01b5f52604160045260245ffd5b600181811c90821680611a7457607f821691505b6020821081036104ac57634e487b7160e01b5f52602260045260245ffd5b634e487b7160e01b5f52603260045260245ffd5b634e487b7160e01b5f52601160045260245ffd5b5f60018201611acb57611acb611aa6565b5060010190565b5f60208284031215611ae2575f5ffd5b8151611929816119d5565b5f60208284031215611afd575f5ffd5b5051919050565b80820180821115611b1757611b17611aa6565b92915050565b601f821115611b6457805f5260205f20601f840160051c81016020851015611b425750805b601f840160051c820191505b81811015611b61575f8155600101611b4e565b50505b505050565b815167ffffffffffffffff811115611b8357611b83611a4c565b611b9781611b918454611a60565b84611b1d565b6020601f821160018114611bc9575f8315611bb25750848201515b5f19600385901b1c1916600184901b178455611b61565b5f84815260208120601f198516915b82811015611bf85787850151825560209485019460019092019101611bd8565b5084821015611c1557868401515f19600387901b60f8161c191681555b50505050600190811b01905550565b8082028115828204841417611b1757611b17611aa6565b5f82611c5557634e487b7160e01b5f52601260045260245ffd5b50049056fea2646970667358221220381c16ecc2e697f14948011c19f50cbadf4eaf920018a49148b5a06ed8e6970364736f6c634300081c0033",
        "nonce": "0xbe",
        "chainId": "0xaa36a7"
      },
      "additionalContracts": [],
      "isFixedGasLimit": false
    },
    {
      "hash": "0x43fe53519ec290694873b021ba31a1b0d3cfa10b7d66114ae732f3a4682c7884",
      "transactionType": "CALL",
      "contractName": "BetMeme",
      "contractAddress": "0xf93e46212f5ec36d59078d62dbd4112812eed391",
      "function": "createGame(uint256,uint256,address)",
      "arguments": [
        "3600",
        "10",
        "0xf805ce4F96e0EdD6f0b6cd4be22B34b92373d696"
      ],
      "transaction": {
        "from": "0x2fccba2f198066c5ea3e414dd50f78e25c3af552",
        "to": "0xf93e46212f5ec36d59078d62dbd4112812eed391",
        "gas": "0x32dab",
        "value": "0x0",
        "input": "0x542453310000000000000000000000000000000000000000000000000000000000000e10000000000000000000000000000000000000000000000000000000000000000a000000000000000000000000f805ce4f96e0edd6f0b6cd4be22b34b92373d696",
        "nonce": "0xbf",
        "chainId": "0xaa36a7"
      },
      "additionalContracts": [],
      "isFixedGasLimit": false
    },
    {
      "hash": "0xb02021ff3ed6c412b8f65998ee0fe9b7de6c0f40e00d4cad881dd60731f52ef9",
      "transactionType": "CALL",
      "contractName": null,
      "contractAddress": "0xf805ce4f96e0edd6f0b6cd4be22b34b92373d696",
      "function": "approve(address,uint256)",
      "arguments": [
        "0xF93E46212F5Ec36D59078D62DBD4112812eed391",
        "10"
      ],
      "transaction": {
        "from": "0x2fccba2f198066c5ea3e414dd50f78e25c3af552",
        "to": "0xf805ce4f96e0edd6f0b6cd4be22b34b92373d696",
        "gas": "0x10808",
        "value": "0x0",
        "input": "0x095ea7b3000000000000000000000000f93e46212f5ec36d59078d62dbd4112812eed391000000000000000000000000000000000000000000000000000000000000000a",
        "nonce": "0xc0",
        "chainId": "0xaa36a7"
      },
      "additionalContracts": [],
      "isFixedGasLimit": false
    },
    {
      "hash": "0x371e8957b1ff1974fa279cf5bece108991ac7a642182308a0bf3b0abeafce4f8",
      "transactionType": "CALL",
      "contractName": "BetMeme",
      "contractAddress": "0xf93e46212f5ec36d59078d62dbd4112812eed391",
      "function": "bet(uint256,bool,uint256)",
      "arguments": [
        "0",
        "true",
        "10"
      ],
      "transaction": {
        "from": "0x2fccba2f198066c5ea3e414dd50f78e25c3af552",
        "to": "0xf93e46212f5ec36d59078d62dbd4112812eed391",
        "gas": "0x627aa",
        "value": "0x0",
        "input": "0x8decaec000000000000000000000000000000000000000000000000000000000000000000000000000000000000000000000000000000000000000000000000000000001000000000000000000000000000000000000000000000000000000000000000a",
        "nonce": "0xc1",
        "chainId": "0xaa36a7"
      },
      "additionalContracts": [],
      "isFixedGasLimit": false
    }
  ],
  "receipts": [
    {
      "status": "0x1",
      "cumulativeGasUsed": "0xa5934c",
      "logs": [],
      "logsBloom": "0x00000000000000000000000000000000000000000000000000000000000000000000000000000000000000000000000000000000000000000000000000000000000000000000000000000000000000000000000000000000000000000000000000000000000000000000000000000000000000000000000000000000000000000000000000000000000000000000000000000000000000000000000000000000000000000000000000000000000000000000000000000000000000000000000000000000000000000000000000000000000000000000000000000000000000000000000000000000000000000000000000000000000000000000000000000000",
      "type": "0x2",
      "transactionHash": "0xbc3f49acf20e966b2f2bdb142bbf9c0e19b0c5fa590871c1dd61242be9a15c08",
      "transactionIndex": "0x4f",
      "blockHash": "0xc5e9a8f0c1838b88a2c06850ea8242ccc25ee3548960682ee1f4874349d6fa60",
      "blockNumber": "0x6ce261",
      "gasUsed": "0x1a5024",
      "effectiveGasPrice": "0xb70eb1ff",
      "from": "0x2fccba2f198066c5ea3e414dd50f78e25c3af552",
      "to": null,
      "contractAddress": "0xf93e46212f5ec36d59078d62dbd4112812eed391"
    },
    {
      "status": "0x1",
      "cumulativeGasUsed": "0xa7e061",
      "logs": [
        {
          "address": "0xf93e46212f5ec36d59078d62dbd4112812eed391",
          "topics": [
            "0xc3e0f84839dc888c892a013d10c8f9d6dc05a21a879d0ce468ca558013e9121c"
          ],
          "data": "0x0000000000000000000000000000000000000000000000000000000000000000000000000000000000000000f805ce4f96e0edd6f0b6cd4be22b34b92373d696",
          "blockHash": "0xc5e9a8f0c1838b88a2c06850ea8242ccc25ee3548960682ee1f4874349d6fa60",
          "blockNumber": "0x6ce261",
          "transactionHash": "0x43fe53519ec290694873b021ba31a1b0d3cfa10b7d66114ae732f3a4682c7884",
          "transactionIndex": "0x50",
          "logIndex": "0x84",
          "removed": false
        }
      ],
      "logsBloom": "0x00000000000000000000000000000000000000000000000200000000000000000000000000000000000000000000000040200000000000000000000000000000000000000000000000000000000000000000000000000000000000000000000000000000000000000000000000000000000000000000000000000000000008000000000000000000000000000000000000000000000000000000000000000000000000000000000000000000000000000000000000000000000000000000000000000000020000000000000000000000000000000000000000000000000000000000000000000000000000000200000000000000000000000000000000000000",
      "type": "0x2",
      "transactionHash": "0x43fe53519ec290694873b021ba31a1b0d3cfa10b7d66114ae732f3a4682c7884",
      "transactionIndex": "0x50",
      "blockHash": "0xc5e9a8f0c1838b88a2c06850ea8242ccc25ee3548960682ee1f4874349d6fa60",
      "blockNumber": "0x6ce261",
      "gasUsed": "0x24d15",
      "effectiveGasPrice": "0xb70eb1ff",
      "from": "0x2fccba2f198066c5ea3e414dd50f78e25c3af552",
      "to": "0xf93e46212f5ec36d59078d62dbd4112812eed391",
      "contractAddress": null
    },
    {
      "status": "0x1",
      "cumulativeGasUsed": "0xa894ea",
      "logs": [
        {
          "address": "0xf805ce4f96e0edd6f0b6cd4be22b34b92373d696",
          "topics": [
            "0x8c5be1e5ebec7d5bd14f71427d1e84f3dd0314c0f7b2291e5b200ac8c7c3b925",
            "0x0000000000000000000000002fccba2f198066c5ea3e414dd50f78e25c3af552",
            "0x000000000000000000000000f93e46212f5ec36d59078d62dbd4112812eed391"
          ],
          "data": "0x000000000000000000000000000000000000000000000000000000000000000a",
          "blockHash": "0xc5e9a8f0c1838b88a2c06850ea8242ccc25ee3548960682ee1f4874349d6fa60",
          "blockNumber": "0x6ce261",
          "transactionHash": "0xb02021ff3ed6c412b8f65998ee0fe9b7de6c0f40e00d4cad881dd60731f52ef9",
          "transactionIndex": "0x51",
          "logIndex": "0x85",
          "removed": false
        }
      ],
      "logsBloom": "0x00000000000000000000000000000000000000000000000000000000000000000020000800000000000000000000000000000000000000000000000000200000000000000000000000000000000000000000000000000000000000000000000000000000000000000000000000000000000000000000000000000000000000000000000000000000000000000000000000000000000010000000000000000000020000000000000000000000000000000000000000000000000000000000000000000000000000000040000000000000000000004000000000000000000000000010000010000000000000000000000010000000000000000080000000000004",
      "type": "0x2",
      "transactionHash": "0xb02021ff3ed6c412b8f65998ee0fe9b7de6c0f40e00d4cad881dd60731f52ef9",
      "transactionIndex": "0x51",
      "blockHash": "0xc5e9a8f0c1838b88a2c06850ea8242ccc25ee3548960682ee1f4874349d6fa60",
      "blockNumber": "0x6ce261",
      "gasUsed": "0xb489",
      "effectiveGasPrice": "0xb70eb1ff",
      "from": "0x2fccba2f198066c5ea3e414dd50f78e25c3af552",
      "to": "0xf805ce4f96e0edd6f0b6cd4be22b34b92373d696",
      "contractAddress": null
    },
    {
      "status": "0x1",
      "cumulativeGasUsed": "0xacca4b",
      "logs": [
        {
          "address": "0xf805ce4f96e0edd6f0b6cd4be22b34b92373d696",
          "topics": [
            "0x8c5be1e5ebec7d5bd14f71427d1e84f3dd0314c0f7b2291e5b200ac8c7c3b925",
            "0x0000000000000000000000002fccba2f198066c5ea3e414dd50f78e25c3af552",
            "0x000000000000000000000000f93e46212f5ec36d59078d62dbd4112812eed391"
          ],
          "data": "0x0000000000000000000000000000000000000000000000000000000000000000",
          "blockHash": "0xc5e9a8f0c1838b88a2c06850ea8242ccc25ee3548960682ee1f4874349d6fa60",
          "blockNumber": "0x6ce261",
          "transactionHash": "0x371e8957b1ff1974fa279cf5bece108991ac7a642182308a0bf3b0abeafce4f8",
          "transactionIndex": "0x52",
          "logIndex": "0x86",
          "removed": false
        },
        {
          "address": "0xf805ce4f96e0edd6f0b6cd4be22b34b92373d696",
          "topics": [
            "0xddf252ad1be2c89b69c2b068fc378daa952ba7f163c4a11628f55a4df523b3ef",
            "0x0000000000000000000000002fccba2f198066c5ea3e414dd50f78e25c3af552",
            "0x000000000000000000000000f93e46212f5ec36d59078d62dbd4112812eed391"
          ],
          "data": "0x000000000000000000000000000000000000000000000000000000000000000a",
          "blockHash": "0xc5e9a8f0c1838b88a2c06850ea8242ccc25ee3548960682ee1f4874349d6fa60",
          "blockNumber": "0x6ce261",
          "transactionHash": "0x371e8957b1ff1974fa279cf5bece108991ac7a642182308a0bf3b0abeafce4f8",
          "transactionIndex": "0x52",
          "logIndex": "0x87",
          "removed": false
        },
        {
          "address": "0xf805ce4f96e0edd6f0b6cd4be22b34b92373d696",
          "topics": [
            "0x8c5be1e5ebec7d5bd14f71427d1e84f3dd0314c0f7b2291e5b200ac8c7c3b925",
            "0x000000000000000000000000f93e46212f5ec36d59078d62dbd4112812eed391",
            "0x0000000000000000000000001b6877c6dac4b6de4c5817925dc40e2bfdafc01b"
          ],
          "data": "0x000000000000000000000000000000000000000000000000000000000000000a",
          "blockHash": "0xc5e9a8f0c1838b88a2c06850ea8242ccc25ee3548960682ee1f4874349d6fa60",
          "blockNumber": "0x6ce261",
          "transactionHash": "0x371e8957b1ff1974fa279cf5bece108991ac7a642182308a0bf3b0abeafce4f8",
          "transactionIndex": "0x52",
          "logIndex": "0x88",
          "removed": false
        },
        {
          "address": "0xf805ce4f96e0edd6f0b6cd4be22b34b92373d696",
          "topics": [
            "0x8c5be1e5ebec7d5bd14f71427d1e84f3dd0314c0f7b2291e5b200ac8c7c3b925",
            "0x000000000000000000000000f93e46212f5ec36d59078d62dbd4112812eed391",
            "0x0000000000000000000000001b6877c6dac4b6de4c5817925dc40e2bfdafc01b"
          ],
          "data": "0x0000000000000000000000000000000000000000000000000000000000000000",
          "blockHash": "0xc5e9a8f0c1838b88a2c06850ea8242ccc25ee3548960682ee1f4874349d6fa60",
          "blockNumber": "0x6ce261",
          "transactionHash": "0x371e8957b1ff1974fa279cf5bece108991ac7a642182308a0bf3b0abeafce4f8",
          "transactionIndex": "0x52",
          "logIndex": "0x89",
          "removed": false
        },
        {
          "address": "0xf805ce4f96e0edd6f0b6cd4be22b34b92373d696",
          "topics": [
            "0xddf252ad1be2c89b69c2b068fc378daa952ba7f163c4a11628f55a4df523b3ef",
            "0x000000000000000000000000f93e46212f5ec36d59078d62dbd4112812eed391",
            "0x0000000000000000000000001b6877c6dac4b6de4c5817925dc40e2bfdafc01b"
          ],
          "data": "0x000000000000000000000000000000000000000000000000000000000000000a",
          "blockHash": "0xc5e9a8f0c1838b88a2c06850ea8242ccc25ee3548960682ee1f4874349d6fa60",
          "blockNumber": "0x6ce261",
          "transactionHash": "0x371e8957b1ff1974fa279cf5bece108991ac7a642182308a0bf3b0abeafce4f8",
          "transactionIndex": "0x52",
          "logIndex": "0x8a",
          "removed": false
        },
        {
          "address": "0x1b6877c6dac4b6de4c5817925dc40e2bfdafc01b",
          "topics": [
            "0xddf252ad1be2c89b69c2b068fc378daa952ba7f163c4a11628f55a4df523b3ef",
            "0x0000000000000000000000000000000000000000000000000000000000000000",
            "0x000000000000000000000000f93e46212f5ec36d59078d62dbd4112812eed391"
          ],
          "data": "0x0000000000000000000000000000000000000000000000000000000000000009",
          "blockHash": "0xc5e9a8f0c1838b88a2c06850ea8242ccc25ee3548960682ee1f4874349d6fa60",
          "blockNumber": "0x6ce261",
          "transactionHash": "0x371e8957b1ff1974fa279cf5bece108991ac7a642182308a0bf3b0abeafce4f8",
          "transactionIndex": "0x52",
          "logIndex": "0x8b",
          "removed": false
        },
        {
          "address": "0x1b6877c6dac4b6de4c5817925dc40e2bfdafc01b",
          "topics": [
            "0xdcbc1c05240f31ff3ad067ef1ee35ce4997762752e3a095284754544f4c709d7",
            "0x000000000000000000000000f93e46212f5ec36d59078d62dbd4112812eed391",
            "0x000000000000000000000000f93e46212f5ec36d59078d62dbd4112812eed391"
          ],
          "data": "0x000000000000000000000000000000000000000000000000000000000000000a0000000000000000000000000000000000000000000000000000000000000009",
          "blockHash": "0xc5e9a8f0c1838b88a2c06850ea8242ccc25ee3548960682ee1f4874349d6fa60",
          "blockNumber": "0x6ce261",
          "transactionHash": "0x371e8957b1ff1974fa279cf5bece108991ac7a642182308a0bf3b0abeafce4f8",
          "transactionIndex": "0x52",
          "logIndex": "0x8c",
          "removed": false
        },
        {
          "address": "0xf93e46212f5ec36d59078d62dbd4112812eed391",
          "topics": [
            "0xb2dea862933fda054de6f12d6e0b7affaff4ba9f6aa471c7532461410d6ba46d",
            "0x0000000000000000000000002fccba2f198066c5ea3e414dd50f78e25c3af552"
          ],
          "data": "0x00000000000000000000000000000000000000000000000000000000000000000000000000000000000000000000000000000000000000000000000000000001000000000000000000000000000000000000000000000000000000000000000a",
          "blockHash": "0xc5e9a8f0c1838b88a2c06850ea8242ccc25ee3548960682ee1f4874349d6fa60",
          "blockNumber": "0x6ce261",
          "transactionHash": "0x371e8957b1ff1974fa279cf5bece108991ac7a642182308a0bf3b0abeafce4f8",
          "transactionIndex": "0x52",
          "logIndex": "0x8d",
          "removed": false
        }
      ],
      "logsBloom": "0x0000000000800000000000010000000000000000000000000000000000000000002000080000000000000000000000000020000000000000000000000020000000000040000000000000000800000000000000000000000000008000000000100000000002000000000000000000080000000000000400000000009000000000000000000000000000000000000000000000000000001000000800000000000002000000000800000000000000000000000000000100000000000000000000000000000202000000004000000000000000000000400a000000000000000020000010000010000000000000000200000010000000000000000080000000000004",
      "type": "0x2",
      "transactionHash": "0x371e8957b1ff1974fa279cf5bece108991ac7a642182308a0bf3b0abeafce4f8",
      "transactionIndex": "0x52",
      "blockHash": "0xc5e9a8f0c1838b88a2c06850ea8242ccc25ee3548960682ee1f4874349d6fa60",
      "blockNumber": "0x6ce261",
      "gasUsed": "0x43561",
      "effectiveGasPrice": "0xb70eb1ff",
      "from": "0x2fccba2f198066c5ea3e414dd50f78e25c3af552",
      "to": "0xf93e46212f5ec36d59078d62dbd4112812eed391",
      "contractAddress": null
    }
  ],
  "libraries": [],
  "pending": [],
  "returns": {},
  "timestamp": 1732361409,
  "chain": 11155111,
  "commit": "c1b677a"
}