{
  "transactions": [
    {
      "hash": "0x9c90a86efb68df1c7b86306e494ff0c121474be5f5add17d6e85db06a97fd003",
      "transactionType": "CREATE",
      "contractName": "BetMeme",
      "contractAddress": "0x618003ce5f46b0551218e00b22fac52a3118747d",
      "function": null,
      "arguments": [
        "3600",
        "10",
        "0xf805ce4F96e0EdD6f0b6cd4be22B34b92373d696"
      ],
      "transaction": {
        "from": "0x2fccba2f198066c5ea3e414dd50f78e25c3af552",
        "gas": "0x17db10",
        "value": "0x0",
        "input": "0x60806040525f80546001600160a01b031990811661dead17909155600180548216731b6877c6dac4b6de4c5817925dc40e2bfdafc01b90811790915560028054831673f805ce4f96e0edd6f0b6cd4be22b34b92373d6961790556003805490921617905534801561006e575f5ffd5b5060405161149b38038061149b83398101604081905261008d91610332565b5f83116100e15760405162461bcd60e51b815260206004820152601f60248201527f4475726174696f6e206d7573742062652067726561746572207468616e20300060448201526064015b60405180910390fd5b5f82116101425760405162461bcd60e51b815260206004820152602960248201527f4d696e696d756d2062657420616d6f756e74206d75737420626520677265617460448201526806572207468616e20360bc1b60648201526084016100d8565b5f8190506040518061016001604052804281526020018581526020015f81526020015f81526020018481526020015f81526020015f81526020015f81526020015f15158152602001826001600160a01b031681526020015f6001600160401b038111156101b1576101b1610374565b6040519080825280602002602001820160405280156101da578160200160208202803683370190505b5090528051600490815560208083015160055560408301516006556060830151600755608083015160085560a083015160095560c0830151600a5560e0830151600b5561010080840151600c80546101208701516001600160a81b0319909116921515610100600160a81b031916929092176001600160a01b03909216909202179055610140830151805161027392600d9201906102bb565b50506040516001600160a01b03841681527f4f0d1d413a983b9df8ab6ab954635b186a1e9a09ee6dc1b43263ddbf48412267915060200160405180910390a150505050610388565b828054828255905f5260205f2090810192821561030e579160200282015b8281111561030e57825182546001600160a01b0319166001600160a01b039091161782556020909201916001909101906102d9565b5061031a92915061031e565b5090565b5b8082111561031a575f815560010161031f565b5f5f5f60608486031215610344575f5ffd5b83516020850151604086015191945092506001600160a01b0381168114610369575f5ffd5b809150509250925092565b634e487b7160e01b5f52604160045260245ffd5b611106806103955f395ff3fe608060405234801561000f575f5ffd5b50600436106100a6575f3560e01c806370d5ae051161006e57806370d5ae051461013d57806381a2824f1461014f578063bc14ebe714610164578063c3fe3e2814610177578063d0399bb814610209578063fc86cc601461021c575f5ffd5b80634494fd9f146100aa5780634e92a646146100c85780635229a6fd146100ea578063577fd7f8146100ff578063627777951461012a575b5f5ffd5b6100b2610231565b6040516100bf9190610ce1565b60405180910390f35b6100db6100d6366004610d84565b610362565b6040516100bf93929190610ddf565b6100fd6100f8366004610e18565b61040e565b005b600354610112906001600160a01b031681565b6040516001600160a01b0390911681526020016100bf565b600154610112906001600160a01b031681565b5f54610112906001600160a01b031681565b610157610820565b6040516100bf9190610e42565b600254610112906001600160a01b031681565b600454600554600654600754600854600954600a54600b54600c546101b498979695949392919060ff81169061010090046001600160a01b03168a565b604080519a8b5260208b0199909952978901969096526060880194909452608087019290925260a086015260c085015260e084015215156101008301526001600160a01b0316610120820152610140016100bf565b6100fd610217366004610e72565b6108f9565b6102246109ff565b6040516100bf9190610e89565b61028f6040518061016001604052805f81526020015f81526020015f81526020015f81526020015f81526020015f81526020015f81526020015f81526020015f151581526020015f6001600160a01b03168152602001606081525090565b6040805161016081018252600480548252600554602080840191909152600654838501526007546060840152600854608084015260095460a0840152600a5460c0840152600b5460e0840152600c5460ff81161515610100808601919091526001600160a01b03910416610120840152600d8054855181840281018401909652808652939492936101408601939283018282801561035457602002820191905f5260205f20905b81546001600160a01b03168152600190910190602001808311610336575b505050505081525050905090565b600e6020525f908152604090208054600182015460028301805460ff90931693919261038d90610ed4565b80601f01602080910402602001604051908101604052809291908181526020018280546103b990610ed4565b80156104045780601f106103db57610100808354040283529160200191610404565b820191905f5260205f20905b8154815290600101906020018083116103e757829003601f168201915b5050505050905083565b6004545f0361045a5760405162461bcd60e51b815260206004820152601360248201527211d85b5948191bd95cc81b9bdd08195e1a5cdd606a1b60448201526064015b60405180910390fd5b6008548110156104a15760405162461bcd60e51b815260206004820152601260248201527142657420616d6f756e7420746f6f206c6f7760701b6044820152606401610451565b6002546040516323b872dd60e01b8152336004820152306024820152604481018390526001600160a01b03909116906323b872dd906064016020604051808303815f875af11580156104f5573d5f5f3e3d5ffd5b505050506040513d601f19601f820116820180604052508101906105199190610f0c565b61055d5760405162461bcd60e51b8152602060048201526015602482015274151bdad95b881d1c985b9cd9995c8819985a5b1959605a1b6044820152606401610451565b60025460015460405163095ea7b360e01b81526001600160a01b0391821660048201526024810184905291169063095ea7b3906044016020604051808303815f875af11580156105af573d5f5f3e3d5ffd5b505050506040513d601f19601f820116820180604052508101906105d39190610f0c565b50600354604051636e553f6560e01b8152600481018390523060248201526001600160a01b0390911690636e553f65906044016020604051808303815f875af1158015610622573d5f5f3e3d5ffd5b505050506040513d601f19601f820116820180604052508101906106469190610f27565b50600c5460ff161561068f5760405162461bcd60e51b815260206004820152601260248201527111d85b5948185b1c9958591e48195b99195960721b6044820152606401610451565b335f908152600e602052604090206001810154156106ef5760405162461bcd60e51b815260206004820152601760248201527f5573657220616c726561647920706c61636564206265740000000000000000006044820152606401610451565b805460ff19168315151781556001810180548391905f90610711908490610f52565b909155505060408051808201909152600781526650454e44494e4760c81b602082015260028201906107439082610fcb565b508215610769578160046005015f82825461075e9190610f52565b909155506107839050565b8160046006015f82825461077d9190610f52565b90915550505b8160046007015f8282546107979190610f52565b9091555050600d80546001810182555f919091527fd7b6990105719101dabeb77144f2a3385c8033acd3af97e9423a695e81ad1eb50180546001600160a01b03191633908117909155604080518515158152602081018590527fe57fa5a543ebcdebf2a7d7102ac913e14454cec006468e43a6916e95bdfcea9e910160405180910390a2505050565b60408051606080820183525f8083526020808401829052838501839052338252600e81529084902084519283018552805460ff161515835260018101549183019190915260028101805493949293919284019161087c90610ed4565b80601f01602080910402602001604051908101604052809291908181526020018280546108a890610ed4565b80156103545780601f106108ca57610100808354040283529160200191610354565b820191905f5260205f20905b8154815290600101906020018083116108d6575050509190925250919392505050565b6004545f036109405760405162461bcd60e51b815260206004820152601360248201527211d85b5948191bd95cc81b9bdd08195e1a5cdd606a1b6044820152606401610451565b600c5460ff16156109885760405162461bcd60e51b815260206004820152601260248201527111d85b5948185b1c9958591e48195b99195960721b6044820152606401610451565b6007819055600b5460065482106109ad576009546109a890826001610a62565b6109bb565b600a546109bb90825f610a62565b6040518281527fce24807f7e4b60b4e641462f13029fa5e5f79075bbc3f8e5cd43ecd19661d7609060200160405180910390a15050600c805460ff19166001179055565b60606004600901805480602002602001604051908101604052809291908181526020018280548015610a5857602002820191905f5260205f20905b81546001600160a01b03168152600190910190602001808311610a3a575b5050505050905090565b5f5b600d54811015610c98575f60046009018281548110610a8557610a85611086565b5f9182526020808320909101546001600160a01b0316808352600e909152604082208054919350919085151560ff909116151503610b855786868360010154610ace919061109a565b610ad891906110b1565b600c5460405163a9059cbb60e01b81526001600160a01b038681166004830152602482018490529293506101009091049091169063a9059cbb906044016020604051808303815f875af1158015610b31573d5f5f3e3d5ffd5b505050506040513d601f19601f82011682018060405250810190610b559190610f0c565b506040805180820190915260038152622ba7a760e91b60208201526002830190610b7f9082610fcb565b50610c4a565b86868360010154610b96919061109a565b610ba091906110b1565b600c5460405163a9059cbb60e01b81526001600160a01b038681166004830152602482018490529293506101009091049091169063a9059cbb906044016020604051808303815f875af1158015610bf9573d5f5f3e3d5ffd5b505050506040513d601f19601f82011682018060405250810190610c1d9190610f0c565b506040805180820190915260048152631313d4d560e21b60208201526002830190610c489082610fcb565b505b826001600160a01b03167fd8138f8a3f377c5259ca548e70e4c2de94f129f5a11036a15b69513cba2b426a82604051610c8591815260200190565b60405180910390a2505050600101610a64565b50505050565b5f8151808452602084019350602083015f5b82811015610cd75781516001600160a01b0316865260209586019590910190600101610cb0565b5093949350505050565b6020815281516020820152602082015160408201526040820151606082015260608201516080820152608082015160a082015260a082015160c082015260c082015160e082015260e08201516101008201525f610100830151610d4961012084018215159052565b506101208301516001600160a01b0381166101408401525061014083015161016080840152610d7c610180840182610c9e565b949350505050565b5f60208284031215610d94575f5ffd5b81356001600160a01b0381168114610daa575f5ffd5b9392505050565b5f81518084528060208401602086015e5f602082860101526020601f19601f83011685010191505092915050565b8315158152826020820152606060408201525f610dff6060830184610db1565b95945050505050565b8015158114610e15575f5ffd5b50565b5f5f60408385031215610e29575f5ffd5b8235610e3481610e08565b946020939093013593505050565b60208152815115156020820152602082015160408201525f6040830151606080840152610d7c6080840182610db1565b5f60208284031215610e82575f5ffd5b5035919050565b602080825282518282018190525f918401906040840190835b81811015610ec95783516001600160a01b0316835260209384019390920191600101610ea2565b509095945050505050565b600181811c90821680610ee857607f821691505b602082108103610f0657634e487b7160e01b5f52602260045260245ffd5b50919050565b5f60208284031215610f1c575f5ffd5b8151610daa81610e08565b5f60208284031215610f37575f5ffd5b5051919050565b634e487b7160e01b5f52601160045260245ffd5b80820180821115610f6557610f65610f3e565b92915050565b634e487b7160e01b5f52604160045260245ffd5b601f821115610fc657805f5260205f20601f840160051c81016020851015610fa45750805b601f840160051c820191505b81811015610fc3575f8155600101610fb0565b50505b505050565b815167ffffffffffffffff811115610fe557610fe5610f6b565b610ff981610ff38454610ed4565b84610f7f565b6020601f82116001811461102b575f83156110145750848201515b5f19600385901b1c1916600184901b178455610fc3565b5f84815260208120601f198516915b8281101561105a578785015182556020948501946001909201910161103a565b508482101561107757868401515f19600387901b60f8161c191681555b50505050600190811b01905550565b634e487b7160e01b5f52603260045260245ffd5b8082028115828204841417610f6557610f65610f3e565b5f826110cb57634e487b7160e01b5f52601260045260245ffd5b50049056fea2646970667358221220b155f385f9b1d17c2b63096f03573ed0fff0340574a8890b446b09d04d32bc0564736f6c634300081c00330000000000000000000000000000000000000000000000000000000000000e10000000000000000000000000000000000000000000000000000000000000000a000000000000000000000000f805ce4f96e0edd6f0b6cd4be22b34b92373d696",
        "nonce": "0xc2",
        "chainId": "0xaa36a7"
      },
      "additionalContracts": [],
      "isFixedGasLimit": false
    },
    {
      "hash": "0x1be858aa24e2bd7afb2e529949a6d267677d19ce83358332744770c57f82ba91",
      "transactionType": "CALL",
      "contractName": null,
      "contractAddress": "0xf805ce4f96e0edd6f0b6cd4be22b34b92373d696",
      "function": "approve(address,uint256)",
      "arguments": [
        "0x618003CE5F46B0551218E00B22FAC52a3118747d",
        "10"
      ],
      "transaction": {
        "from": "0x2fccba2f198066c5ea3e414dd50f78e25c3af552",
        "to": "0xf805ce4f96e0edd6f0b6cd4be22b34b92373d696",
        "gas": "0x10808",
        "value": "0x0",
        "input": "0x095ea7b3000000000000000000000000618003ce5f46b0551218e00b22fac52a3118747d000000000000000000000000000000000000000000000000000000000000000a",
        "nonce": "0xc3",
        "chainId": "0xaa36a7"
      },
      "additionalContracts": [],
      "isFixedGasLimit": false
    },
    {
      "hash": "0xf3867f4c141189d277ebfef2f5fbd9a1e0ad97adbc32e7ec9a485b779d0bf6d0",
      "transactionType": "CALL",
      "contractName": "BetMeme",
      "contractAddress": "0x618003ce5f46b0551218e00b22fac52a3118747d",
      "function": "bet(bool,uint256)",
      "arguments": [
        "true",
        "10"
      ],
      "transaction": {
        "from": "0x2fccba2f198066c5ea3e414dd50f78e25c3af552",
        "to": "0x618003ce5f46b0551218e00b22fac52a3118747d",
        "gas": "0x616f1",
        "value": "0x0",
        "input": "0x5229a6fd0000000000000000000000000000000000000000000000000000000000000001000000000000000000000000000000000000000000000000000000000000000a",
        "nonce": "0xc4",
        "chainId": "0xaa36a7"
      },
      "additionalContracts": [],
      "isFixedGasLimit": false
    }
  ],
  "receipts": [
    {
      "status": "0x1",
      "cumulativeGasUsed": "0xb19f82",
      "logs": [
        {
          "address": "0x618003ce5f46b0551218e00b22fac52a3118747d",
          "topics": [
            "0x4f0d1d413a983b9df8ab6ab954635b186a1e9a09ee6dc1b43263ddbf48412267"
          ],
          "data": "0x000000000000000000000000f805ce4f96e0edd6f0b6cd4be22b34b92373d696",
          "blockHash": "0x03a3767a30189bc5d7b6a2bf3a28865a8c97bf5264f63a70a4ffde751c44fb28",
          "blockNumber": "0x6ce2d8",
          "transactionHash": "0x9c90a86efb68df1c7b86306e494ff0c121474be5f5add17d6e85db06a97fd003",
          "transactionIndex": "0xca",
          "logIndex": "0x4a",
          "removed": false
        }
      ],
      "logsBloom": "0x00000000000000000000000000000000000000000000000000000000008000000000000000000000000000000000000000000000000000000000000000000000100000000000000000000000000000000000000000000000000000000000000000000000000000000800000000000000000000000000000000000000000000000000000000000800000000000000000000000000000000000000000000000000000000000000000000000000000000000000000000000000000000000000000000000000000000000000000000000000000000000000000040000000008000000000000000000000000000000000000000000000000000000000000000000000",
      "type": "0x2",
      "transactionHash": "0x9c90a86efb68df1c7b86306e494ff0c121474be5f5add17d6e85db06a97fd003",
      "transactionIndex": "0xca",
      "blockHash": "0x03a3767a30189bc5d7b6a2bf3a28865a8c97bf5264f63a70a4ffde751c44fb28",
      "blockNumber": "0x6ce2d8",
      "gasUsed": "0x1259be",
      "effectiveGasPrice": "0x342c4039",
      "from": "0x2fccba2f198066c5ea3e414dd50f78e25c3af552",
      "to": null,
      "contractAddress": "0x618003ce5f46b0551218e00b22fac52a3118747d"
    },
    {
      "status": "0x1",
      "cumulativeGasUsed": "0xb2540b",
      "logs": [
        {
          "address": "0xf805ce4f96e0edd6f0b6cd4be22b34b92373d696",
          "topics": [
            "0x8c5be1e5ebec7d5bd14f71427d1e84f3dd0314c0f7b2291e5b200ac8c7c3b925",
            "0x0000000000000000000000002fccba2f198066c5ea3e414dd50f78e25c3af552",
            "0x000000000000000000000000618003ce5f46b0551218e00b22fac52a3118747d"
          ],
          "data": "0x000000000000000000000000000000000000000000000000000000000000000a",
          "blockHash": "0x03a3767a30189bc5d7b6a2bf3a28865a8c97bf5264f63a70a4ffde751c44fb28",
          "blockNumber": "0x6ce2d8",
          "transactionHash": "0x1be858aa24e2bd7afb2e529949a6d267677d19ce83358332744770c57f82ba91",
          "transactionIndex": "0xcb",
          "logIndex": "0x4b",
          "removed": false
        }
      ],
      "logsBloom": "0x00000000000000000000000000000000000000000000000000000000000000000000000800000000000000000008000000000000000000000000000000200000000000000000000000000000000000000000000000000000000000000000000000000000000000000000000000000000000001000000000000000000000000000000000000000000000000000000000000000000000010000000000000000000020000000000000000000000000000000000000000000000000000000000000000000000000000000040000000000000000004004000000000000000000000000010000000000000000000000000000010000000000000000080000000000000",
      "type": "0x2",
      "transactionHash": "0x1be858aa24e2bd7afb2e529949a6d267677d19ce83358332744770c57f82ba91",
      "transactionIndex": "0xcb",
      "blockHash": "0x03a3767a30189bc5d7b6a2bf3a28865a8c97bf5264f63a70a4ffde751c44fb28",
      "blockNumber": "0x6ce2d8",
      "gasUsed": "0xb489",
      "effectiveGasPrice": "0x342c4039",
      "from": "0x2fccba2f198066c5ea3e414dd50f78e25c3af552",
      "to": "0xf805ce4f96e0edd6f0b6cd4be22b34b92373d696",
      "contractAddress": null
    },
    {
      "status": "0x1",
      "cumulativeGasUsed": "0xb67dfd",
      "logs": [
        {
          "address": "0xf805ce4f96e0edd6f0b6cd4be22b34b92373d696",
          "topics": [
            "0x8c5be1e5ebec7d5bd14f71427d1e84f3dd0314c0f7b2291e5b200ac8c7c3b925",
            "0x0000000000000000000000002fccba2f198066c5ea3e414dd50f78e25c3af552",
            "0x000000000000000000000000618003ce5f46b0551218e00b22fac52a3118747d"
          ],
          "data": "0x0000000000000000000000000000000000000000000000000000000000000000",
          "blockHash": "0x03a3767a30189bc5d7b6a2bf3a28865a8c97bf5264f63a70a4ffde751c44fb28",
          "blockNumber": "0x6ce2d8",
          "transactionHash": "0xf3867f4c141189d277ebfef2f5fbd9a1e0ad97adbc32e7ec9a485b779d0bf6d0",
          "transactionIndex": "0xcc",
          "logIndex": "0x4c",
          "removed": false
        },
        {
          "address": "0xf805ce4f96e0edd6f0b6cd4be22b34b92373d696",
          "topics": [
            "0xddf252ad1be2c89b69c2b068fc378daa952ba7f163c4a11628f55a4df523b3ef",
            "0x0000000000000000000000002fccba2f198066c5ea3e414dd50f78e25c3af552",
            "0x000000000000000000000000618003ce5f46b0551218e00b22fac52a3118747d"
          ],
          "data": "0x000000000000000000000000000000000000000000000000000000000000000a",
          "blockHash": "0x03a3767a30189bc5d7b6a2bf3a28865a8c97bf5264f63a70a4ffde751c44fb28",
          "blockNumber": "0x6ce2d8",
          "transactionHash": "0xf3867f4c141189d277ebfef2f5fbd9a1e0ad97adbc32e7ec9a485b779d0bf6d0",
          "transactionIndex": "0xcc",
          "logIndex": "0x4d",
          "removed": false
        },
        {
          "address": "0xf805ce4f96e0edd6f0b6cd4be22b34b92373d696",
          "topics": [
            "0x8c5be1e5ebec7d5bd14f71427d1e84f3dd0314c0f7b2291e5b200ac8c7c3b925",
            "0x000000000000000000000000618003ce5f46b0551218e00b22fac52a3118747d",
            "0x0000000000000000000000001b6877c6dac4b6de4c5817925dc40e2bfdafc01b"
          ],
          "data": "0x000000000000000000000000000000000000000000000000000000000000000a",
          "blockHash": "0x03a3767a30189bc5d7b6a2bf3a28865a8c97bf5264f63a70a4ffde751c44fb28",
          "blockNumber": "0x6ce2d8",
          "transactionHash": "0xf3867f4c141189d277ebfef2f5fbd9a1e0ad97adbc32e7ec9a485b779d0bf6d0",
          "transactionIndex": "0xcc",
          "logIndex": "0x4e",
          "removed": false
        },
        {
          "address": "0xf805ce4f96e0edd6f0b6cd4be22b34b92373d696",
          "topics": [
            "0x8c5be1e5ebec7d5bd14f71427d1e84f3dd0314c0f7b2291e5b200ac8c7c3b925",
            "0x000000000000000000000000618003ce5f46b0551218e00b22fac52a3118747d",
            "0x0000000000000000000000001b6877c6dac4b6de4c5817925dc40e2bfdafc01b"
          ],
          "data": "0x0000000000000000000000000000000000000000000000000000000000000000",
          "blockHash": "0x03a3767a30189bc5d7b6a2bf3a28865a8c97bf5264f63a70a4ffde751c44fb28",
          "blockNumber": "0x6ce2d8",
          "transactionHash": "0xf3867f4c141189d277ebfef2f5fbd9a1e0ad97adbc32e7ec9a485b779d0bf6d0",
          "transactionIndex": "0xcc",
          "logIndex": "0x4f",
          "removed": false
        },
        {
          "address": "0xf805ce4f96e0edd6f0b6cd4be22b34b92373d696",
          "topics": [
            "0xddf252ad1be2c89b69c2b068fc378daa952ba7f163c4a11628f55a4df523b3ef",
            "0x000000000000000000000000618003ce5f46b0551218e00b22fac52a3118747d",
            "0x0000000000000000000000001b6877c6dac4b6de4c5817925dc40e2bfdafc01b"
          ],
          "data": "0x000000000000000000000000000000000000000000000000000000000000000a",
          "blockHash": "0x03a3767a30189bc5d7b6a2bf3a28865a8c97bf5264f63a70a4ffde751c44fb28",
          "blockNumber": "0x6ce2d8",
          "transactionHash": "0xf3867f4c141189d277ebfef2f5fbd9a1e0ad97adbc32e7ec9a485b779d0bf6d0",
          "transactionIndex": "0xcc",
          "logIndex": "0x50",
          "removed": false
        },
        {
          "address": "0x1b6877c6dac4b6de4c5817925dc40e2bfdafc01b",
          "topics": [
            "0xddf252ad1be2c89b69c2b068fc378daa952ba7f163c4a11628f55a4df523b3ef",
            "0x0000000000000000000000000000000000000000000000000000000000000000",
            "0x000000000000000000000000618003ce5f46b0551218e00b22fac52a3118747d"
          ],
          "data": "0x0000000000000000000000000000000000000000000000000000000000000009",
          "blockHash": "0x03a3767a30189bc5d7b6a2bf3a28865a8c97bf5264f63a70a4ffde751c44fb28",
          "blockNumber": "0x6ce2d8",
          "transactionHash": "0xf3867f4c141189d277ebfef2f5fbd9a1e0ad97adbc32e7ec9a485b779d0bf6d0",
          "transactionIndex": "0xcc",
          "logIndex": "0x51",
          "removed": false
        },
        {
          "address": "0x1b6877c6dac4b6de4c5817925dc40e2bfdafc01b",
          "topics": [
            "0xdcbc1c05240f31ff3ad067ef1ee35ce4997762752e3a095284754544f4c709d7",
            "0x000000000000000000000000618003ce5f46b0551218e00b22fac52a3118747d",
            "0x000000000000000000000000618003ce5f46b0551218e00b22fac52a3118747d"
          ],
          "data": "0x000000000000000000000000000000000000000000000000000000000000000a0000000000000000000000000000000000000000000000000000000000000009",
          "blockHash": "0x03a3767a30189bc5d7b6a2bf3a28865a8c97bf5264f63a70a4ffde751c44fb28",
          "blockNumber": "0x6ce2d8",
          "transactionHash": "0xf3867f4c141189d277ebfef2f5fbd9a1e0ad97adbc32e7ec9a485b779d0bf6d0",
          "transactionIndex": "0xcc",
          "logIndex": "0x52",
          "removed": false
        },
        {
          "address": "0x618003ce5f46b0551218e00b22fac52a3118747d",
          "topics": [
            "0xe57fa5a543ebcdebf2a7d7102ac913e14454cec006468e43a6916e95bdfcea9e",
            "0x0000000000000000000000002fccba2f198066c5ea3e414dd50f78e25c3af552"
          ],
          "data": "0x0000000000000000000000000000000000000000000000000000000000000001000000000000000000000000000000000000000000000000000000000000000a",
          "blockHash": "0x03a3767a30189bc5d7b6a2bf3a28865a8c97bf5264f63a70a4ffde751c44fb28",
          "blockNumber": "0x6ce2d8",
          "transactionHash": "0xf3867f4c141189d277ebfef2f5fbd9a1e0ad97adbc32e7ec9a485b779d0bf6d0",
          "transactionIndex": "0xcc",
          "logIndex": "0x53",
          "removed": false
        }
      ],
      "logsBloom": "0x0000000000800000000000010000000000000000000000000000000000800000000000080000000000000000000802000000000000000001000000000020000000000040000000000000010800000000000000000000000000000000000000100000000002000000000000000000080000000100000400000000009000000000000000000000080000000000000000000000000000001000000000000000000002000000000800000000000000000000000000000000000000000000000000000000000200000000004000000000000000000400400a000040000000000020000010000000000000000000000000000010000000000000000080000000000000",
      "type": "0x2",
      "transactionHash": "0xf3867f4c141189d277ebfef2f5fbd9a1e0ad97adbc32e7ec9a485b779d0bf6d0",
      "transactionIndex": "0xcc",
      "blockHash": "0x03a3767a30189bc5d7b6a2bf3a28865a8c97bf5264f63a70a4ffde751c44fb28",
      "blockNumber": "0x6ce2d8",
      "gasUsed": "0x429f2",
      "effectiveGasPrice": "0x342c4039",
      "from": "0x2fccba2f198066c5ea3e414dd50f78e25c3af552",
      "to": "0x618003ce5f46b0551218e00b22fac52a3118747d",
      "contractAddress": null
    }
  ],
  "libraries": [],
  "pending": [],
  "returns": {},
  "timestamp": 1732362899,
  "chain": 11155111,
  "commit": "c1b677a"
}